S012000044494F5F4472697665722E737265636B
S11300000C942A000C943C000C943C000C943C008E
S11300100C943C000C943C000C943C000C943C006C
S11300200C943C000C943C000C943C000C943C005C
S11300300C943C000C943C000C943C000C943C004C
S11300400C943C000C943C000C943C000C943C003C
S11300500C943C0011241FBECFE5D8E0DEBFCDBF19
S113006020E0A0E6B0E001C01D92A436B207E1F79B
S11300700E9484000C94FC000C940000962F8230A3
S113008031F442E0672F892F0E94A400089540E0D4
S1130090672F892F0E94A4000895962F672F81301F
S11300A031F4892F0E94E3008093630008C0892FF4
S11300B00E94E30091E0811190E0909363008091AD
S11300C0630090916200891719F08093620005C063
S11300D0909161009F5F90936100909161009531D0
S11300E028F0109261008093600008958091600070
S11300F00895862F672F41E00E94A4000895862F5B
S1130100672F0E94EF0008951BE3D4E0C2E00F2E96
S1130110F2E3EF2EF02DF12C01E06BE374E082E0CA
S11301200E943E0062E370E081E00E947900612F4A
S11301307D2F8C2F0E944D008130C9F76E2D7F2DAD
S1130140802F0E947F00F3CF413069F4E82FF0E064
S1130150229181E090E002C0880F991F6A95E2F72E
S1130160822B80830895411116C0E82FF0E0DF014F
S11301702E9181E090E002C0880F991F6A95E2F702
S1130180982F909592239C9390B7946090BF908100
S1130190892B808308954230A9F4E82FF0E0DF0131
S11301A02E9181E090E002C0880F991F6A95E2F7D2
S11301B0982F909592239C9390B79B7F90BF9081AA
S11301C0892B80830895E82FF0E03297808190E0B6
S11301D002C0959587956A95E2F781700895E82F96
S11301E0F0E0808121E030E002C0220F331F6A95E5
S10F01F0E2F7282720830895F894FFCF3D
S9030000FC
