S00D000054494D45522E7372656396
S11300000C942A000C9447000C9447000C9447006D
S11300100C9447000C9447000C9447000C94470040
S11300200C9447000C9447000C9447000C94470030
S11300300C9447000C9447000C9447000C94470020
S11300400C9447000C9447000C9447000C94470010
S11300500C94470011241FBECFE5D8E0DEBFCDBF0E
S113006010E0A0E6B0E0E6EFF8E002C005900D92E3
S1130070A037B107D9F720E0A0E7B0E001C01D9296
S1130080A037B207E1F70E9454000C9479040C9451
S11300900000862F672F41E00E948C000895862F70
S11300A0672F0E94CB000895CF93DF9300D000D038
S11300B000D0CDB7DEB786E0E0E6F0E0DE011196D1
S11300C001900D928A95E1F70F2EFBE3DF2EF02DC0
S11300D0E12CFF24F39449815A816B817C818D81C9
S11300E09E810E941A016BE370E081E00E94490046
S11300F009811A812B813C814D815E816AE979E90C
S113010089E99EE30E944801882391F36D2D7E2D99
S11301108F2D0E944F00ECCF413069F4E82FF0E0BE
S1130120229181E090E002C0880F991F6A95E2F75E
S1130130822B80830895411116C0E82FF0E0DF017F
S11301402E9181E090E002C0880F991F6A95E2F732
S1130150982F909592239C9390B7946090BF908130
S1130160892B808308954230A9F4E82FF0E0DF0161
S11301702E9181E090E002C0880F991F6A95E2F702
S1130180982F909592239C9390B79B7F90BF9081DA
S1130190892B80830895E82FF0E0808121E030E00E
S11301A002C0220F331F6A95E2F72827208308959F
S11301B08130910551F48EB581608EBD8EB58D7FF1
S11301C08EBD8EB58B7F8EBD08958830910551F418
S11301D08EB58E7F8EBD8EB582608EBD8EB58B7FC3
S11301E08EBD08958034910551F48EB581608EBD25
S11301F08EB582608EBD8EB58B7F8EBD08958115C0
S113020021E0920751F48EB58E7F8EBD8EB58D7F21
S11302108EBD8EB584608EBD08958115944049F4D9
S11302208EB581608EBD8EB58D7F8EBD8EB584609A
S11302308EBD0895CF93DF9300D000D000D0CDB70A
S1130240DEB749835A836B837C838D839E839111AC
S113025004C0E42FF0E0108212C0913081F489814F
S1130260833519F487B3886087BB8981853419F491
S113027081B3806881BBE981F0E089E680832696BA
S11302800FB6F894DEBF0FBECDBFDF91CF910895B6
S11302904F925F926F927F928F929F92AF92BF9292
S11302A0CF92DF92EF92FF920F931F93CF93DF933E
S11302B0CDB7DEB764970FB6F894DEBF0FBECDBFDF
S11302C00B871C872D873E874F87588B0F3409F087
S11302D0A4C0698B7A8B8B8B9C8B8AE0E6E6F0E07A
S11302E0DE01119601900D928A95E1F710E038C075
S11302F06C857D858E859F85E12FF0E0EE0FFF1FD5
S113030021E030E02C0F3D1FE20FF31FE080F1806D
S1130310970140E050E00E945704842F952F422E0D
S1130320532E642E752E622F732F0E9438034B01B7
S11303305C0129893A894B895C8960E070E080E836
S113034097E40E9497029B01AC01C501B4010E948D
S11303509202882324F445284628472839F41F5F4D
S1130360153030F201E010E080E002C0870181E046
S1130370882309F450C0C8010E94D8006C857D858B
S11303808E859F850E94380329893A894B895C8927
S11303900E94EA032B013C01B80180E090E00E9436
S11303A038036B017C019B01AC01C301B2010E94C3
S11303B097029B01AC0160E070E080E897E40E9442
S11303C025020E9409037DBD6C857D858E859F85F0
S11303D00E94380329893A894B895C890E94EA037F
S11303E0A70196010E9497029B01AC0160E070E0B6
S11303F080E897E40E9425020E94090321E0672B0C
S113040009F420E02CBD08B602FEFDCF88B7846055
S113041088BF81E003C080E001C080E064960FB62D
S1130420F894DEBF0FBECDBFDF91CF911F910F9126
S1130430FF90EF90DF90CF90BF90AF909F908F9000
S11304407F906F905F904F9008955058BB27AA27D4
S11304500E943D020C94B0030E94A20338F00E9453
S1130460A90320F039F49F3F19F426F40C949F0358
S11304700EF4E095E7FB0C949903E92F0E94C10365
S113048058F3BA17620773078407950720F079F4C5
S1130490A6F50C94E3030EF4E0950B2EBA2FA02DD1
S11304A00B01B90190010C01CA01A0011124FF271D
S11304B0591B99F0593F50F4503E68F11A16F04018
S11304C0A22F232F342F4427585FF3CF4695379517
S11304D02795A795F0405395C9F77EF41F16BA0BDC
S11304E0620B730B840BBAF09150A1F0FF0FBB1F8A
S11304F0661F771F881FC2F70EC0BA0F621F731FD3
S1130500841F48F4879577956795B795F7959E3F2F
S113051008F0B0CF9395880F08F09927EE0F9795C0
S1130520879508950E94750308F481E008950E9458
S1130530AB020C94B0030E94A90358F00E94A203DA
S113054040F029F45F3F29F00C94990351110C9465
S1130550E4030C949F030E94C10368F39923B1F34D
S1130560552391F3951B550BBB27AA2762177307D5
S1130570840738F09F5F5F4F220F331F441FAA1F69
S1130580A9F335D00E2E3AF0E0E832D09150504025
S1130590E695001CCAF72BD0FE2F29D0660F771FD3
S11305A0881FBB1F261737074807AB07B0E809F0B9
S11305B0BB0B802DBF01FF2793585F4F3AF09E3F3E
S11305C0510578F00C9499030C94E4035F3FE4F331
S11305D0983ED4F3869577956795B795F7959F5F81
S11305E0C9F7880F911D9695879597F90895E1E0CD
S11305F0660F771F881FBB1F621773078407BA072C
S113060020F0621B730B840BBA0BEE1F88F7E09586
S113061008950E94C90388F09F5798F0B92F99272D
S1130620B751B0F0E1F0660F771F881F991F1AF0D9
S1130630BA95C9F714C0B13091F00E94E303B1E058
S113064008950C94E303672F782F8827B85F39F057
S1130650B93FCCF3869577956795B395D9F73EF472
S113066090958095709561957F4F8F4F9F4F08951A
S1130670E89409C097FB3EF4909580957095619538
S11306807F4F8F4F9F4F9923A9F0F92F96E9BB27EE
S11306909395F695879577956795B795F111F8CF6A
S11306A0FAF4BB0F11F460FF1BC06F5F7F4F8F4FD5
S11306B09F4F16C0882311F096E911C0772321F0CB
S11306C09EE8872F762F05C0662371F096E8862F63
S11306D070E060E02AF09A95660F771F881FDAF7BA
S11306E0880F9695879597F90895990F0008550FE7
S11306F0AA0BE0E8FEEF16161706E807F907C0F0A4
S113070012161306E407F50798F0621B730B840BAB
S1130710950B39F40A2661F0232B242B252B21F485
S113072008950A2609F4A140A6958FEF811D811D25
S1130730089597F99F6780E870E060E008959FEF5F
S113074080EC089500240A94161617061806090664
S1130750089500240A941216130614060506089533
S1130760092E0394000C11F4882352F0BB0F40F4BB
S1130770BF2B11F460FF04C06F5F7F4F8F4F9F4FFB
S1130780089557FD9058440F551F59F05F3F71F07D
S11307904795880F97FB991F61F09F3F79F08795E4
S11307A00895121613061406551FF2CF4695F1DF6D
S11307B008C0161617061806991FF1CF86957105FD
S11307C0610508940895E894BB2766277727CB0131
S11307D097F908950E94FD030C94B0030E94A203AC
S11307E038F00E94A90320F0952311F00C9499038A
S11307F00C949F0311240C94E4030E94C10370F32E
S1130800959FC1F3950F50E0551F629FF001729FB1
S1130810BB27F00DB11D639FAA27F00DB11DAA1FC0
S1130820649F6627B00DA11D661F829F2227B00D0D
S1130830A11D621F739FB00DA11D621F839FA00D98
S1130840611D221F749F3327A00D611D231F849FE8
S1130850600D211D822F762F6A2F11249F5750403F
S11308609AF0F1F088234AF0EE0FFF1FBB1F661FBA
S1130870771F881F91505040A9F79E3F510580F083
S11308800C9499030C94E4035F3FE4F3983ED4F38F
S1130890869577956795B795F795E7959F5FC1F727
S11308A0FE2B880F911D9695879597F90895A1E2DF
S11308B01A2EAA1BBB1BFD010DC0AA1FBB1FEE1FD6
S11308C0FF1FA217B307E407F50720F0A21BB30B21
S11308D0E40BF50B661F771F881F991F1A9469F79D
S11308E060957095809590959B01AC01BD01CF01F9
S10908F00895F894FFCF07
S11308F64F00127A000001000800400000010004C5
S9030000FC
